{
  "contractName": "Vauth",
  "abi": [
    {
      "inputs": [
        {
          "internalType": "string",
          "name": "_code",
          "type": "string"
        },
        {
          "internalType": "string",
          "name": "_brand",
          "type": "string"
        },
        {
          "internalType": "string",
          "name": "_model",
          "type": "string"
        },
        {
          "internalType": "uint256",
          "name": "_status",
          "type": "uint256"
        },
        {
          "internalType": "string",
          "name": "_description",
          "type": "string"
        },
        {
          "internalType": "string",
          "name": "_manufactuerName",
          "type": "string"
        },
        {
          "internalType": "string",
          "name": "_manufactuerLocation",
          "type": "string"
        },
        {
          "internalType": "string",
          "name": "_manufactuerTimestamp",
          "type": "string"
        }
      ],
      "name": "createCode",
      "outputs": [
        {
          "internalType": "uint256",
          "name": "",
          "type": "uint256"
        }
      ],
      "stateMutability": "payable",
      "type": "function",
      "payable": true
    },
    {
      "inputs": [
        {
          "internalType": "string",
          "name": "_code",
          "type": "string"
        }
      ],
      "name": "getNotOwnedCodeDetails",
      "outputs": [
        {
          "internalType": "string",
          "name": "",
          "type": "string"
        },
        {
          "internalType": "string",
          "name": "",
          "type": "string"
        },
        {
          "internalType": "uint256",
          "name": "",
          "type": "uint256"
        },
        {
          "internalType": "string",
          "name": "",
          "type": "string"
        },
        {
          "internalType": "string",
          "name": "",
          "type": "string"
        },
        {
          "internalType": "string",
          "name": "",
          "type": "string"
        },
        {
          "internalType": "string",
          "name": "",
          "type": "string"
        }
      ],
      "stateMutability": "view",
      "type": "function",
      "constant": true
    },
    {
      "inputs": [
        {
          "internalType": "string",
          "name": "_code",
          "type": "string"
        }
      ],
      "name": "getOwnedCodeDetails",
      "outputs": [
        {
          "internalType": "string",
          "name": "",
          "type": "string"
        },
        {
          "internalType": "string",
          "name": "",
          "type": "string"
        }
      ],
      "stateMutability": "view",
      "type": "function",
      "constant": true
    },
    {
      "inputs": [
        {
          "internalType": "string",
          "name": "_code",
          "type": "string"
        },
        {
          "internalType": "string",
          "name": "_hashedEmailRetailer",
          "type": "string"
        }
      ],
      "name": "addRetailerToCode",
      "outputs": [
        {
          "internalType": "uint256",
          "name": "",
          "type": "uint256"
        }
      ],
      "stateMutability": "payable",
      "type": "function",
      "payable": true
    },
    {
      "inputs": [
        {
          "internalType": "string",
          "name": "_hashedEmail",
          "type": "string"
        },
        {
          "internalType": "string",
          "name": "_name",
          "type": "string"
        },
        {
          "internalType": "string",
          "name": "_phone",
          "type": "string"
        }
      ],
      "name": "createCustomer",
      "outputs": [
        {
          "internalType": "bool",
          "name": "",
          "type": "bool"
        }
      ],
      "stateMutability": "payable",
      "type": "function",
      "payable": true
    },
    {
      "inputs": [
        {
          "internalType": "string",
          "name": "_code",
          "type": "string"
        }
      ],
      "name": "getCustomerDetails",
      "outputs": [
        {
          "internalType": "string",
          "name": "",
          "type": "string"
        },
        {
          "internalType": "string",
          "name": "",
          "type": "string"
        }
      ],
      "stateMutability": "view",
      "type": "function",
      "constant": true
    },
    {
      "inputs": [
        {
          "internalType": "string",
          "name": "_hashedEmail",
          "type": "string"
        },
        {
          "internalType": "string",
          "name": "_retailerName",
          "type": "string"
        },
        {
          "internalType": "string",
          "name": "_retailerLocation",
          "type": "string"
        }
      ],
      "name": "createRetailer",
      "outputs": [
        {
          "internalType": "uint256",
          "name": "",
          "type": "uint256"
        }
      ],
      "stateMutability": "payable",
      "type": "function",
      "payable": true
    },
    {
      "inputs": [
        {
          "internalType": "string",
          "name": "_code",
          "type": "string"
        }
      ],
      "name": "getRetailerDetails",
      "outputs": [
        {
          "internalType": "string",
          "name": "",
          "type": "string"
        },
        {
          "internalType": "string",
          "name": "",
          "type": "string"
        }
      ],
      "stateMutability": "view",
      "type": "function",
      "constant": true
    },
    {
      "inputs": [
        {
          "internalType": "string",
          "name": "_code",
          "type": "string"
        },
        {
          "internalType": "string",
          "name": "_customer",
          "type": "string"
        }
      ],
      "name": "reportStolen",
      "outputs": [
        {
          "internalType": "bool",
          "name": "",
          "type": "bool"
        }
      ],
      "stateMutability": "payable",
      "type": "function",
      "payable": true
    },
    {
      "inputs": [
        {
          "internalType": "string",
          "name": "_code",
          "type": "string"
        },
        {
          "internalType": "string",
          "name": "_oldCustomer",
          "type": "string"
        },
        {
          "internalType": "string",
          "name": "_newCustomer",
          "type": "string"
        }
      ],
      "name": "changeOwner",
      "outputs": [
        {
          "internalType": "bool",
          "name": "",
          "type": "bool"
        }
      ],
      "stateMutability": "payable",
      "type": "function",
      "payable": true
    },
    {
      "inputs": [
        {
          "internalType": "string",
          "name": "_code",
          "type": "string"
        },
        {
          "internalType": "string",
          "name": "_retailer",
          "type": "string"
        },
        {
          "internalType": "string",
          "name": "_customer",
          "type": "string"
        }
      ],
      "name": "initialOwner",
      "outputs": [
        {
          "internalType": "bool",
          "name": "",
          "type": "bool"
        }
      ],
      "stateMutability": "payable",
      "type": "function",
      "payable": true
    },
    {
      "inputs": [
        {
          "internalType": "string",
          "name": "_customer",
          "type": "string"
        }
      ],
      "name": "getCodes",
      "outputs": [
        {
          "internalType": "string[]",
          "name": "",
          "type": "string[]"
        }
      ],
      "stateMutability": "view",
      "type": "function",
      "constant": true
    }
  ],
  "bytecode": "0x608060405234801561001057600080fd5b5061316a806100206000396000f3fe6080604052600436106100a75760003560e01c8063b5bd438b11610064578063b5bd438b146101ed578063c5e697171461021d578063c91e74e31461024d578063ceff2efc1461028b578063ea788dd1146102bb578063ff901040146102f9576100a7565b806310999689146100ac578063285e9e16146100dc57806355b059e81461011a5780637ab9c57c1461014a57806391904ff81461018d578063b3e19d1a146101bd575b600080fd5b6100c660048036038101906100c191906128de565b610336565b6040516100d39190612a67565b60405180910390f35b3480156100e857600080fd5b5061010360048036038101906100fe9190612a82565b6104a6565b604051610111929190612b53565b60405180910390f35b610134600480360381019061012f9190612b8a565b61064c565b6040516101419190612c4c565b60405180910390f35b34801561015657600080fd5b50610171600480360381019061016c9190612a82565b61075c565b6040516101849796959493929190612c67565b60405180910390f35b6101a760048036038101906101a29190612d00565b610bb0565b6040516101b49190612c4c565b60405180910390f35b6101d760048036038101906101d29190612d00565b610d2a565b6040516101e49190612a67565b60405180910390f35b61020760048036038101906102029190612b8a565b610d6c565b6040516102149190612a67565b60405180910390f35b61023760048036038101906102329190612b8a565b610df0565b6040516102449190612c4c565b60405180910390f35b34801561025957600080fd5b50610274600480360381019061026f9190612a82565b611183565b604051610282929190612b53565b60405180910390f35b6102a560048036038101906102a09190612b8a565b6112e9565b6040516102b29190612c4c565b60405180910390f35b3480156102c757600080fd5b506102e260048036038101906102dd9190612a82565b612127565b6040516102f0929190612b53565b60405180910390f35b34801561030557600080fd5b50610320600480360381019061031b9190612a82565b61228d565b60405161032d9190612e84565b60405180910390f35b60006103406124ca565b88816020018190525087816040018190525086816000018181525050858160600181905250848160800181905250838160a00181905250828160c001819052508060018b6040516103919190612ee2565b90815260200160405180910390206000820151816000015560208201518160010190805190602001906103c5929190612516565b5060408201518160020190805190602001906103e2929190612516565b5060608201518160030190805190602001906103ff929190612516565b50608082015181600401908051906020019061041c929190612516565b5060a0820151816005019080519060200190610439929190612516565b5060c0820151816006019080519060200190610456929190612516565b5060e0820151816007019080519060200190610473929190612516565b5061010082015181600801908051906020019061049192919061259c565b50905050600191505098975050505050505050565b60608060036001846040516104bb9190612ee2565b90815260200160405180910390206007016040516104d99190612fed565b908152602001604051809103902060000160036001856040516104fc9190612ee2565b908152602001604051809103902060070160405161051a9190612fed565b908152602001604051809103902060010181805461053790612f28565b80601f016020809104026020016040519081016040528092919081815260200182805461056390612f28565b80156105b05780601f10610585576101008083540402835291602001916105b0565b820191906000526020600020905b81548152906001019060200180831161059357829003601f168201915b505050505091508080546105c390612f28565b80601f01602080910402602001604051908101604052809291908181526020018280546105ef90612f28565b801561063c5780601f106106115761010080835404028352916020019161063c565b820191906000526020600020905b81548152906001019060200180831161061f57829003601f168201915b5050505050905091509150915091565b600060028460405161065e9190612ee2565b908152602001604051809103902060030160009054906101000a900460ff161561068b5760009050610755565b6106936125fc565b8381600001819052508281602001819052506001816060019015159081151581525050806002866040516106c79190612ee2565b908152602001604051809103902060008201518160000190805190602001906106f1929190612516565b50602082015181600101908051906020019061070e929190612516565b50604082015181600201908051906020019061072b92919061259c565b5060608201518160030160006101000a81548160ff02191690831515021790555090505060019150505b9392505050565b60608060006060806060806001886040516107779190612ee2565b90815260200160405180910390206001016001896040516107989190612ee2565b908152602001604051809103902060020160018a6040516107b99190612ee2565b90815260200160405180910390206000015460018b6040516107db9190612ee2565b908152602001604051809103902060030160018c6040516107fc9190612ee2565b908152602001604051809103902060040160018d60405161081d9190612ee2565b908152602001604051809103902060050160018e60405161083e9190612ee2565b908152602001604051809103902060060186805461085b90612f28565b80601f016020809104026020016040519081016040528092919081815260200182805461088790612f28565b80156108d45780601f106108a9576101008083540402835291602001916108d4565b820191906000526020600020905b8154815290600101906020018083116108b757829003601f168201915b505050505096508580546108e790612f28565b80601f016020809104026020016040519081016040528092919081815260200182805461091390612f28565b80156109605780601f1061093557610100808354040283529160200191610960565b820191906000526020600020905b81548152906001019060200180831161094357829003601f168201915b5050505050955083805461097390612f28565b80601f016020809104026020016040519081016040528092919081815260200182805461099f90612f28565b80156109ec5780601f106109c1576101008083540402835291602001916109ec565b820191906000526020600020905b8154815290600101906020018083116109cf57829003601f168201915b505050505093508280546109ff90612f28565b80601f0160208091040260200160405190810160405280929190818152602001828054610a2b90612f28565b8015610a785780601f10610a4d57610100808354040283529160200191610a78565b820191906000526020600020905b815481529060010190602001808311610a5b57829003601f168201915b50505050509250818054610a8b90612f28565b80601f0160208091040260200160405190810160405280929190818152602001828054610ab790612f28565b8015610b045780601f10610ad957610100808354040283529160200191610b04565b820191906000526020600020905b815481529060010190602001808311610ae757829003601f168201915b50505050509150808054610b1790612f28565b80601f0160208091040260200160405190810160405280929190818152602001828054610b4390612f28565b8015610b905780601f10610b6557610100808354040283529160200191610b90565b820191906000526020600020905b815481529060010190602001808311610b7357829003601f168201915b505050505090509650965096509650965096509650919395979092949650565b600080600283604051610bc39190612ee2565b908152602001604051809103902060030160009054906101000a900460ff1615610d1e5760009050600283604051610bfb9190612ee2565b908152602001604051809103902060020180549050811015610d1d57610ce6600284604051610c2a9190612ee2565b90815260200160405180910390206002018281548110610c4d57610c4c613004565b5b906000526020600020018054610c6290612f28565b80601f0160208091040260200160405190810160405280929190818152602001828054610c8e90612f28565b8015610cdb5780601f10610cb057610100808354040283529160200191610cdb565b820191906000526020600020905b815481529060010190602001808311610cbe57829003601f168201915b505050505085612387565b15610d13576002600185604051610cfd9190612ee2565b9081526020016040518091039020600001819055505b6001915050610d24565b5b60009150505b92915050565b600081600184604051610d3d9190612ee2565b90815260200160405180910390206007019080519060200190610d61929190612516565b506001905092915050565b6000610d76612626565b83816000018190525082816020018190525080600386604051610d999190612ee2565b90815260200160405180910390206000820151816000019080519060200190610dc3929190612516565b506020820151816001019080519060200190610de0929190612516565b5090505060019150509392505050565b600080610ea6600186604051610e069190612ee2565b90815260200160405180910390206007018054610e2290612f28565b80601f0160208091040260200160405190810160405280929190818152602001828054610e4e90612f28565b8015610e9b5780601f10610e7057610100808354040283529160200191610e9b565b820191906000526020600020905b815481529060010190602001808311610e7e57829003601f168201915b505050505085612387565b1561117657600283604051610ebb9190612ee2565b908152602001604051809103902060030160009054906101000a900460ff161561117557600185604051610eef9190612ee2565b908152602001604051809103902060080183908060018154018082558091505060019003906000526020600020016000909190919091509080519060200190610f39929190612516565b5060018086604051610f4b9190612ee2565b9081526020016040518091039020600001819055506000600284604051610f729190612ee2565b90815260200160405180910390206002018054905090506000810361107e57600284604051610fa19190612ee2565b908152602001604051809103902060020186908060018154018082558091505060019003906000526020600020016000909190919091509080519060200190610feb929190612516565b50600284604051610ffc9190612ee2565b908152602001604051809103902060020180600181540180825580915050600190039060005260206000200160006040518060400160405280600481526020017f6861636b0000000000000000000000000000000000000000000000000000000081525090919091509080519060200190611078929190612516565b5061116a565b8560028560405161108f9190612ee2565b90815260200160405180910390206002016001836110ad91906130aa565b815481106110be576110bd613004565b5b9060005260206000200190805190602001906110db929190612516565b506002846040516110ec9190612ee2565b908152602001604051809103902060020180600181540180825580915050600190039060005260206000200160006040518060400160405280600481526020017f6861636b0000000000000000000000000000000000000000000000000000000081525090919091509080519060200190611168929190612516565b505b60019250505061117c565b5b60009150505b9392505050565b6060806002836040516111969190612ee2565b90815260200160405180910390206000016002846040516111b79190612ee2565b90815260200160405180910390206001018180546111d490612f28565b80601f016020809104026020016040519081016040528092919081815260200182805461120090612f28565b801561124d5780601f106112225761010080835404028352916020019161124d565b820191906000526020600020905b81548152906001019060200180831161123057829003601f168201915b5050505050915080805461126090612f28565b80601f016020809104026020016040519081016040528092919081815260200182805461128c90612f28565b80156112d95780601f106112ae576101008083540402835291602001916112d9565b820191906000526020600020905b8154815290600101906020018083116112bc57829003601f168201915b5050505050905091509150915091565b6000806000806001876040516112ff9190612ee2565b9081526020016040518091039020604051806101200160405290816000820154815260200160018201805461133390612f28565b80601f016020809104026020016040519081016040528092919081815260200182805461135f90612f28565b80156113ac5780601f10611381576101008083540402835291602001916113ac565b820191906000526020600020905b81548152906001019060200180831161138f57829003601f168201915b505050505081526020016002820180546113c590612f28565b80601f01602080910402602001604051908101604052809291908181526020018280546113f190612f28565b801561143e5780601f106114135761010080835404028352916020019161143e565b820191906000526020600020905b81548152906001019060200180831161142157829003601f168201915b5050505050815260200160038201805461145790612f28565b80601f016020809104026020016040519081016040528092919081815260200182805461148390612f28565b80156114d05780601f106114a5576101008083540402835291602001916114d0565b820191906000526020600020905b8154815290600101906020018083116114b357829003601f168201915b505050505081526020016004820180546114e990612f28565b80601f016020809104026020016040519081016040528092919081815260200182805461151590612f28565b80156115625780601f1061153757610100808354040283529160200191611562565b820191906000526020600020905b81548152906001019060200180831161154557829003601f168201915b5050505050815260200160058201805461157b90612f28565b80601f01602080910402602001604051908101604052809291908181526020018280546115a790612f28565b80156115f45780601f106115c9576101008083540402835291602001916115f4565b820191906000526020600020905b8154815290600101906020018083116115d757829003601f168201915b5050505050815260200160068201805461160d90612f28565b80601f016020809104026020016040519081016040528092919081815260200182805461163990612f28565b80156116865780601f1061165b57610100808354040283529160200191611686565b820191906000526020600020905b81548152906001019060200180831161166957829003601f168201915b5050505050815260200160078201805461169f90612f28565b80601f01602080910402602001604051908101604052809291908181526020018280546116cb90612f28565b80156117185780601f106116ed57610100808354040283529160200191611718565b820191906000526020600020905b8154815290600101906020018083116116fb57829003601f168201915b5050505050815260200160088201805480602002602001604051908101604052809291908181526020016000905b828210156117f257838290600052602060002001805461176590612f28565b80601f016020809104026020016040519081016040528092919081815260200182805461179190612f28565b80156117de5780601f106117b3576101008083540402835291602001916117de565b820191906000526020600020905b8154815290600101906020018083116117c157829003601f168201915b505050505081526020019060010190611746565b50505050815250509050600081610100015151905060006002886040516118199190612ee2565b908152602001604051809103902060405180608001604052908160008201805461184290612f28565b80601f016020809104026020016040519081016040528092919081815260200182805461186e90612f28565b80156118bb5780601f10611890576101008083540402835291602001916118bb565b820191906000526020600020905b81548152906001019060200180831161189e57829003601f168201915b505050505081526020016001820180546118d490612f28565b80601f016020809104026020016040519081016040528092919081815260200182805461190090612f28565b801561194d5780601f106119225761010080835404028352916020019161194d565b820191906000526020600020905b81548152906001019060200180831161193057829003601f168201915b5050505050815260200160028201805480602002602001604051908101604052809291908181526020016000905b82821015611a2757838290600052602060002001805461199a90612f28565b80601f01602080910402602001604051908101604052809291908181526020018280546119c690612f28565b8015611a135780601f106119e857610100808354040283529160200191611a13565b820191906000526020600020905b8154815290600101906020018083116119f657829003601f168201915b50505050508152602001906001019061197b565b5050505081526020016003820160009054906101000a900460ff16151515158152505090506000600289604051611a5e9190612ee2565b90815260200160405180910390206002018054905090506000600289604051611a879190612ee2565b9081526020016040518091039020604051806080016040529081600082018054611ab090612f28565b80601f0160208091040260200160405190810160405280929190818152602001828054611adc90612f28565b8015611b295780601f10611afe57610100808354040283529160200191611b29565b820191906000526020600020905b815481529060010190602001808311611b0c57829003601f168201915b50505050508152602001600182018054611b4290612f28565b80601f0160208091040260200160405190810160405280929190818152602001828054611b6e90612f28565b8015611bbb5780601f10611b9057610100808354040283529160200191611bbb565b820191906000526020600020905b815481529060010190602001808311611b9e57829003601f168201915b5050505050815260200160028201805480602002602001604051908101604052809291908181526020016000905b82821015611c95578382906000526020600020018054611c0890612f28565b80601f0160208091040260200160405190810160405280929190818152602001828054611c3490612f28565b8015611c815780601f10611c5657610100808354040283529160200191611c81565b820191906000526020600020905b815481529060010190602001808311611c6457829003601f168201915b505050505081526020019060010190611be9565b5050505081526020016003820160009054906101000a900460ff161515151581525050905082606001518015611ccc575080606001515b1561211457600096505b81871015611d2757611d0683604001518881518110611cf857611cf7613004565b5b60200260200101518c612387565b15611d145760019550611d27565b8680611d1f90613062565b975050611cd6565b600115158615150361211357600096505b83871015611dd857611d698561010001518881518110611d5b57611d5a613004565b5b60200260200101518b612387565b15611dc5578860018c604051611d7f9190612ee2565b90815260200160405180910390206008018881548110611da257611da1613004565b5b906000526020600020019080519060200190611dbf929190612516565b50611dd8565b8680611dd090613062565b975050611d38565b600096505b8187101561211257611eb460028b604051611df89190612ee2565b90815260200160405180910390206002018881548110611e1b57611e1a613004565b5b906000526020600020018054611e3090612f28565b80601f0160208091040260200160405190810160405280929190818152602001828054611e5c90612f28565b8015611ea95780601f10611e7e57610100808354040283529160200191611ea9565b820191906000526020600020905b815481529060010190602001808311611e8c57829003601f168201915b50505050508c612387565b156120ff57611ee38760028c604051611ecd9190612ee2565b90815260200160405180910390206002016123e0565b50600060028a604051611ef69190612ee2565b9081526020016040518091039020600201805490509050600081036120025760028a604051611f259190612ee2565b90815260200160405180910390206002018c908060018154018082558091505060019003906000526020600020016000909190919091509080519060200190611f6f929190612516565b5060028a604051611f809190612ee2565b908152602001604051809103902060020180600181540180825580915050600190039060005260206000200160006040518060400160405280600481526020017f6861636b0000000000000000000000000000000000000000000000000000000081525090919091509080519060200190611ffc929190612516565b506120ee565b8b60028b6040516120139190612ee2565b908152602001604051809103902060020160018361203191906130aa565b8154811061204257612041613004565b5b90600052602060002001908051906020019061205f929190612516565b5060028a6040516120709190612ee2565b908152602001604051809103902060020180600181540180825580915050600190039060005260206000200160006040518060400160405280600481526020017f6861636b00000000000000000000000000000000000000000000000000000000815250909190915090805190602001906120ec929190612516565b505b600198505050505050505050612120565b868061210a90613062565b975050611ddd565b5b5b60009750505050505050505b9392505050565b60608060038360405161213a9190612ee2565b908152602001604051809103902060000160038460405161215b9190612ee2565b908152602001604051809103902060010181805461217890612f28565b80601f01602080910402602001604051908101604052809291908181526020018280546121a490612f28565b80156121f15780601f106121c6576101008083540402835291602001916121f1565b820191906000526020600020905b8154815290600101906020018083116121d457829003601f168201915b5050505050915080805461220490612f28565b80601f016020809104026020016040519081016040528092919081815260200182805461223090612f28565b801561227d5780601f106122525761010080835404028352916020019161227d565b820191906000526020600020905b81548152906001019060200180831161226057829003601f168201915b5050505050905091509150915091565b606060028260405161229f9190612ee2565b9081526020016040518091039020600201805480602002602001604051908101604052809291908181526020016000905b8282101561237c5783829060005260206000200180546122ef90612f28565b80601f016020809104026020016040519081016040528092919081815260200182805461231b90612f28565b80156123685780601f1061233d57610100808354040283529160200191612368565b820191906000526020600020905b81548152906001019060200180831161234b57829003601f168201915b5050505050815260200190600101906122d0565b505050509050919050565b60008160405160200161239a9190612ee2565b60405160208183030381529060405280519060200120836040516020016123c19190612ee2565b6040516020818303038152906040528051906020012014905092915050565b6000818054905083106123f657600090506124c4565b60008390505b6001838054905061240d91906130aa565b811015612485578260018261242291906130de565b8154811061243357612432613004565b5b906000526020600020018382815481106124505761244f613004565b5b9060005260206000200190805461246690612f28565b612471929190612640565b50808061247d90613062565b9150506123fc565b50816001838054905061249891906130aa565b815481106124a9576124a8613004565b5b9060005260206000200160006124bf91906126cd565b600190505b92915050565b6040518061012001604052806000815260200160608152602001606081526020016060815260200160608152602001606081526020016060815260200160608152602001606081525090565b82805461252290612f28565b90600052602060002090601f016020900481019282612544576000855561258b565b82601f1061255d57805160ff191683800117855561258b565b8280016001018555821561258b579182015b8281111561258a57825182559160200191906001019061256f565b5b509050612598919061270d565b5090565b8280548282559060005260206000209081019282156125eb579160200282015b828111156125ea5782518290805190602001906125da929190612516565b50916020019190600101906125bc565b5b5090506125f8919061272a565b5090565b60405180608001604052806060815260200160608152602001606081526020016000151581525090565b604051806040016040528060608152602001606081525090565b82805461264c90612f28565b90600052602060002090601f01602090048101928261266e57600085556126bc565b82601f1061267f57805485556126bc565b828001600101855582156126bc57600052602060002091601f016020900482015b828111156126bb5782548255916001019190600101906126a0565b5b5090506126c9919061270d565b5090565b5080546126d990612f28565b6000825580601f106126eb575061270a565b601f016020900490600052602060002090810190612709919061270d565b5b50565b5b8082111561272657600081600090555060010161270e565b5090565b5b8082111561274a576000818161274191906126cd565b5060010161272b565b5090565b6000604051905090565b600080fd5b600080fd5b600080fd5b600080fd5b6000601f19601f8301169050919050565b7f4e487b7100000000000000000000000000000000000000000000000000000000600052604160045260246000fd5b6127b58261276c565b810181811067ffffffffffffffff821117156127d4576127d361277d565b5b80604052505050565b60006127e761274e565b90506127f382826127ac565b919050565b600067ffffffffffffffff8211156128135761281261277d565b5b61281c8261276c565b9050602081019050919050565b82818337600083830152505050565b600061284b612846846127f8565b6127dd565b90508281526020810184848401111561286757612866612767565b5b612872848285612829565b509392505050565b600082601f83011261288f5761288e612762565b5b813561289f848260208601612838565b91505092915050565b6000819050919050565b6128bb816128a8565b81146128c657600080fd5b50565b6000813590506128d8816128b2565b92915050565b600080600080600080600080610100898b0312156128ff576128fe612758565b5b600089013567ffffffffffffffff81111561291d5761291c61275d565b5b6129298b828c0161287a565b985050602089013567ffffffffffffffff81111561294a5761294961275d565b5b6129568b828c0161287a565b975050604089013567ffffffffffffffff8111156129775761297661275d565b5b6129838b828c0161287a565b96505060606129948b828c016128c9565b955050608089013567ffffffffffffffff8111156129b5576129b461275d565b5b6129c18b828c0161287a565b94505060a089013567ffffffffffffffff8111156129e2576129e161275d565b5b6129ee8b828c0161287a565b93505060c089013567ffffffffffffffff811115612a0f57612a0e61275d565b5b612a1b8b828c0161287a565b92505060e089013567ffffffffffffffff811115612a3c57612a3b61275d565b5b612a488b828c0161287a565b9150509295985092959890939650565b612a61816128a8565b82525050565b6000602082019050612a7c6000830184612a58565b92915050565b600060208284031215612a9857612a97612758565b5b600082013567ffffffffffffffff811115612ab657612ab561275d565b5b612ac28482850161287a565b91505092915050565b600081519050919050565b600082825260208201905092915050565b60005b83811015612b05578082015181840152602081019050612aea565b83811115612b14576000848401525b50505050565b6000612b2582612acb565b612b2f8185612ad6565b9350612b3f818560208601612ae7565b612b488161276c565b840191505092915050565b60006040820190508181036000830152612b6d8185612b1a565b90508181036020830152612b818184612b1a565b90509392505050565b600080600060608486031215612ba357612ba2612758565b5b600084013567ffffffffffffffff811115612bc157612bc061275d565b5b612bcd8682870161287a565b935050602084013567ffffffffffffffff811115612bee57612bed61275d565b5b612bfa8682870161287a565b925050604084013567ffffffffffffffff811115612c1b57612c1a61275d565b5b612c278682870161287a565b9150509250925092565b60008115159050919050565b612c4681612c31565b82525050565b6000602082019050612c616000830184612c3d565b92915050565b600060e0820190508181036000830152612c81818a612b1a565b90508181036020830152612c958189612b1a565b9050612ca46040830188612a58565b8181036060830152612cb68187612b1a565b90508181036080830152612cca8186612b1a565b905081810360a0830152612cde8185612b1a565b905081810360c0830152612cf28184612b1a565b905098975050505050505050565b60008060408385031215612d1757612d16612758565b5b600083013567ffffffffffffffff811115612d3557612d3461275d565b5b612d418582860161287a565b925050602083013567ffffffffffffffff811115612d6257612d6161275d565b5b612d6e8582860161287a565b9150509250929050565b600081519050919050565b600082825260208201905092915050565b6000819050602082019050919050565b600082825260208201905092915050565b6000612dc082612acb565b612dca8185612da4565b9350612dda818560208601612ae7565b612de38161276c565b840191505092915050565b6000612dfa8383612db5565b905092915050565b6000602082019050919050565b6000612e1a82612d78565b612e248185612d83565b935083602082028501612e3685612d94565b8060005b85811015612e725784840389528151612e538582612dee565b9450612e5e83612e02565b925060208a01995050600181019050612e3a565b50829750879550505050505092915050565b60006020820190508181036000830152612e9e8184612e0f565b905092915050565b600081905092915050565b6000612ebc82612acb565b612ec68185612ea6565b9350612ed6818560208601612ae7565b80840191505092915050565b6000612eee8284612eb1565b915081905092915050565b7f4e487b7100000000000000000000000000000000000000000000000000000000600052602260045260246000fd5b60006002820490506001821680612f4057607f821691505b602082108103612f5357612f52612ef9565b5b50919050565b60008190508160005260206000209050919050565b60008154612f7b81612f28565b612f858186612ea6565b94506001821660008114612fa05760018114612fb157612fe4565b60ff19831686528186019350612fe4565b612fba85612f59565b60005b83811015612fdc57815481890152600182019150602081019050612fbd565b838801955050505b50505092915050565b6000612ff98284612f6e565b915081905092915050565b7f4e487b7100000000000000000000000000000000000000000000000000000000600052603260045260246000fd5b7f4e487b7100000000000000000000000000000000000000000000000000000000600052601160045260246000fd5b600061306d826128a8565b91507fffffffffffffffffffffffffffffffffffffffffffffffffffffffffffffffff820361309f5761309e613033565b5b600182019050919050565b60006130b5826128a8565b91506130c0836128a8565b9250828210156130d3576130d2613033565b5b828203905092915050565b60006130e9826128a8565b91506130f4836128a8565b9250827fffffffffffffffffffffffffffffffffffffffffffffffffffffffffffffffff0382111561312957613128613033565b5b82820190509291505056fea2646970667358221220187e541f754c6d9e9e2d38516662909a4b6bf71c6bfc4498c21dcc0a5f042ccc64736f6c634300080d0033",
  "immutableReferences": {},
  "source": "pragma solidity >=0.4.22 <0.9.0;\n\n// Data for testing the functions\n// createCode:          \"11\", \"Nike\", \"Jordan\", 0, \"It's costly\", \"Pratibha Co.\", \"Mumbai\", \"11:00\"\n//                      \"22\", \"Adidas\", \"Air\", 0, \"It's limited\", \"Prabhat Co.\", \"GUjarat\", \"12:00\"\n//                      \"33\", \"Reebok\", \"Ball\", 0, \"It's limited\", \"Prabhat Co.\", \"GUjarat\", \"12:00\"\n// createCustomer:      \"81bd53649936d1e82c64ed216d9d7490\", \"Kyle\", \"9869245690\"\n//                      \"1c29fb983dbe92474a199631dca38fc6\", \"Calden\", \"9123456789\"\n// createRetailer:      \"1111\", \"Lifestyle\", \"Andheri\"\n// addRetailerToCode:   \"11\", \"67xasdbsdfshjd89724hjdsf\"\n// initialOwner:        \"11\", \"Lifestyle\", \"Kyle\"\n//                      \"22\", \"ShopersStop\", \"Calden\"\n// changeOwner          \"11\", \"Calden\", \"Kyle\"\n\n// TODO:\n// Remove timestamp from createCustomer\n// Removed onlyOwner from Retailer\n\ncontract Vauth {\n    address owner;\n    // string temp;\n    // function Authentifi(string _temp) public {\n    //     temp = _temp;\n    // }\n\n    // A struct which helps create a new code\n    // code is a combination of - brand name, model no, status, description,\n    // manufacturer details, retailer details, owner details\n    struct codeObj {\n        uint256 status;\n        string brand;\n        string model;\n        string description;\n        string manufactuerName;\n        string manufactuerLocation;\n        string manufactuerTimestamp;\n        string retailer;\n        string[] customers;\n    }\n\n    // A struct which helps create a new customer\n    struct customerObj {\n        string name;\n        string phone;\n        string[] code;\n        bool isValue;\n    }\n\n    struct retailerObj {\n        string name;\n        string location;\n    }\n\n    mapping(string => codeObj) codeArr;\n    mapping(string => customerObj) customerArr;\n    mapping(string => retailerObj) retailerArr;\n\n    /*\n    function createOwner() public {\n        owner = msg.sender;\n    }\n\n    modifier onlyOwner {\n        require(msg.sender == owner);\n        _;\n    }\n\n    function whoIsOwner() public view returns (address) {\n        return owner;\n    }\n*/\n    // Function to create a new code for the product\n    function createCode(\n        string memory _code,\n        string memory _brand,\n        string memory _model,\n        uint256 _status,\n        string memory _description,\n        string memory _manufactuerName,\n        string memory _manufactuerLocation,\n        string memory _manufactuerTimestamp\n    ) public payable returns (uint256) {\n        codeObj memory newCode;\n        newCode.brand = _brand;\n        newCode.model = _model;\n        newCode.status = _status;\n        newCode.description = _description;\n        newCode.manufactuerName = _manufactuerName;\n        newCode.manufactuerLocation = _manufactuerLocation;\n        newCode.manufactuerTimestamp = _manufactuerTimestamp;\n        codeArr[_code] = newCode;\n        return 1;\n    }\n\n    // Function for showing product details if the person scanning the product is not the owner\n    function getNotOwnedCodeDetails(string memory _code)\n        public\n        view\n        returns (\n            string memory,\n            string memory,\n            uint256,\n            string memory,\n            string memory,\n            string memory,\n            string memory\n        )\n    {\n        return (\n            codeArr[_code].brand,\n            codeArr[_code].model,\n            codeArr[_code].status,\n            codeArr[_code].description,\n            codeArr[_code].manufactuerName,\n            codeArr[_code].manufactuerLocation,\n            codeArr[_code].manufactuerTimestamp\n        );\n    }\n\n    // Function for showing product details if the person scanning the product is the owner\n    function getOwnedCodeDetails(string memory _code)\n        public\n        view\n        returns (string memory, string memory)\n    {\n        return (\n            retailerArr[codeArr[_code].retailer].name,\n            retailerArr[codeArr[_code].retailer].location\n        );\n    }\n\n    // Function for creating a new retailer\n    function addRetailerToCode(\n        string memory _code,\n        string memory _hashedEmailRetailer\n    ) public payable returns (uint256) {\n        codeArr[_code].retailer = _hashedEmailRetailer;\n        return 1;\n    }\n\n    // Function for creating a new customer\n    function createCustomer(\n        string memory _hashedEmail,\n        string memory _name,\n        string memory _phone\n    ) public payable returns (bool) {\n        if (customerArr[_hashedEmail].isValue) {\n            return false;\n        }\n        customerObj memory newCustomer;\n        newCustomer.name = _name;\n        newCustomer.phone = _phone;\n        newCustomer.isValue = true;\n        customerArr[_hashedEmail] = newCustomer;\n        return true;\n    }\n\n    function getCustomerDetails(string memory _code)\n        public\n        view\n        returns (string memory, string memory)\n    {\n        return (customerArr[_code].name, customerArr[_code].phone);\n    }\n\n    function createRetailer(\n        string memory _hashedEmail,\n        string memory _retailerName,\n        string memory _retailerLocation\n    ) public payable returns (uint256) {\n        retailerObj memory newRetailer;\n        newRetailer.name = _retailerName;\n        newRetailer.location = _retailerLocation;\n        retailerArr[_hashedEmail] = newRetailer;\n        return 1;\n    }\n\n    function getRetailerDetails(string memory _code)\n        public\n        view\n        returns (string memory, string memory)\n    {\n        return (retailerArr[_code].name, retailerArr[_code].location);\n    }\n\n    // Function to report stolen\n    function reportStolen(string memory _code, string memory _customer)\n        public\n        payable\n        returns (bool)\n    {\n        uint256 i;\n        // Checking if the customer exists\n        if (customerArr[_customer].isValue) {\n            // Checking if the customer owns the product\n            for (i = 0; i < customerArr[_customer].code.length; i++) {\n                if (compareStrings(customerArr[_customer].code[i], _code)) {\n                    codeArr[_code].status = 2; // Changing the status to stolen\n                }\n                return true;\n            }\n        }\n        return false;\n    }\n\n    function changeOwner(\n        string memory _code,\n        string memory _oldCustomer,\n        string memory _newCustomer\n    ) public payable returns (bool) {\n        uint256 i;\n        bool flag = false;\n        //Creating objects for code,oldCustomer,newCustomer\n        codeObj memory product = codeArr[_code];\n        uint256 len_product_customer = product.customers.length;\n        customerObj memory oldCustomer = customerArr[_oldCustomer];\n        uint256 len_oldCustomer_code = customerArr[_oldCustomer].code.length;\n        customerObj memory newCustomer = customerArr[_newCustomer];\n\n        //Check if oldCustomer and newCustomer have an account\n        if (oldCustomer.isValue && newCustomer.isValue) {\n            //Check if oldCustomer is owner\n            for (i = 0; i < len_oldCustomer_code; i++) {\n                if (compareStrings(oldCustomer.code[i], _code)) {\n                    flag = true;\n                    break;\n                }\n            }\n\n            if (flag == true) {\n                //Swaping oldCustomer with newCustomer in product\n                for (i = 0; i < len_product_customer; i++) {\n                    if (compareStrings(product.customers[i], _oldCustomer)) {\n                        codeArr[_code].customers[i] = _newCustomer;\n                        break;\n                    }\n                }\n\n                // Removing product from oldCustomer\n                for (i = 0; i < len_oldCustomer_code; i++) {\n                    if (\n                        compareStrings(customerArr[_oldCustomer].code[i], _code)\n                    ) {\n                        remove(i, customerArr[_oldCustomer].code);\n                        // Adding product to newCustomer\n                        uint256 len = customerArr[_newCustomer].code.length;\n                        if (len == 0) {\n                            customerArr[_newCustomer].code.push(_code);\n                            customerArr[_newCustomer].code.push(\"hack\");\n                        } else {\n                            customerArr[_newCustomer].code[len - 1] = _code;\n                            customerArr[_newCustomer].code.push(\"hack\");\n                        }\n                        return true;\n                    }\n                }\n            }\n        }\n        return false;\n    }\n\n    function initialOwner(\n        string memory _code,\n        string memory _retailer,\n        string memory _customer\n    ) public payable returns (bool) {\n        uint256 i;\n        if (compareStrings(codeArr[_code].retailer, _retailer)) {\n            // Check if retailer owns the prodct\n            if (customerArr[_customer].isValue) {\n                // Check if Customer has an account\n                codeArr[_code].customers.push(_customer); // Adding customer in code\n                codeArr[_code].status = 1;\n                uint256 len = customerArr[_customer].code.length;\n                if (len == 0) {\n                    customerArr[_customer].code.push(_code);\n                    customerArr[_customer].code.push(\"hack\");\n                } else {\n                    customerArr[_customer].code[len - 1] = _code;\n                    customerArr[_customer].code.push(\"hack\");\n                }\n                return true;\n            }\n        }\n        return false;\n    }\n\n    // Given a customer returns all the product codes he owwns\n    function getCodes(string memory _customer)\n        public\n        view\n        returns (string[] memory)\n    {\n        return customerArr[_customer].code;\n    }\n\n    // Cannot directly compare strings in Solidity\n    // This function hashes the 2 strings and then compares the 2 hashes\n    function compareStrings(string memory a, string memory b)\n        internal\n        returns (bool)\n    {\n        // return keccak256(a) == keccak256(b);\n        return\n            keccak256(abi.encodePacked((a))) ==\n            keccak256(abi.encodePacked((b)));\n    }\n\n    // Function to delete an element from an array\n    function remove(uint256 index, string[] storage array)\n        internal\n        returns (bool)\n    {\n        if (index >= array.length) return false;\n\n        for (uint256 i = index; i < array.length - 1; i++) {\n            array[i] = array[i + 1];\n        }\n        delete array[array.length - 1];\n        // array.length--;\n        return true;\n    }\n\n    // Function to convert string to bytes32\n    function stringToBytes32(string memory source)\n        internal\n        returns (bytes32 result)\n    {\n        bytes memory tempEmptyStringTest = bytes(source);\n        if (tempEmptyStringTest.length == 0) {\n            return 0x0;\n        }\n        assembly {\n            result := mload(add(source, 32))\n        }\n    }\n}\n",
  "sourcePath": "/home/edward/Documents/harmony/vauth/contracts/Vauth.sol",
  "compiler": {
    "name": "solc",
    "version": "0.8.13+commit.abaa5c0e.Emscripten.clang"
  },
  "schemaVersion": "3.4.7",
  "updatedAt": "2022-04-17T15:29:31.439Z",
  "networkType": "ethereum",
  "devdoc": {
    "kind": "dev",
    "methods": {},
    "version": 1
  },
  "userdoc": {
    "kind": "user",
    "methods": {},
    "version": 1
  }
}